:020000040000FA
:100000000C947C010C94AD010C94AD010C94AD01E9
:100010000C94AD010C94AD010C94AD010C94AD01A8
:100020000C94AD010C94AD010C94AD010C94AD0198
:100030000C94AD010C94AD010C94AD010C94AD0188
:100040000C94AD010C94AD010C94AD010C94AD0178
:100050000C94AD010C94AD010C94AD010C94C6044C
:100060000C94AD010C94AD010C94AD010C94AD0158
:100070000C94AD010C94AD010C94AD010C94AD0148
:100080000C94AD010C94AD010C94AD010C94AD0138
:100090000C94AD010C94AD010C94AD010C94AD0128
:1000A0000C94AD010C94AD010C9410050C94AD01B1
:1000B0000C94AD010C94AD010C94AD010C94AD0108
:1000C0000C94AD010C94AD010C94AD010C94AD01F8
:1000D0000C94AD010C94AD010C94AD010C94AD01E8
:1000E0000C94AD010C9438020C9419020C94B102DA
:1000F0000C9434020C94C5080C9403020C94540222
:100100000C94DF020C9424020C9446020C94DE0240
:100110000C943C020C9442020C94AC040C941D020E
:100120000C9450020C942E020C94FE010C942102AB
:100130000C9415020C942A020C944A0230300030C0
:10014000310030320030330030340030350030368A
:1001500000303700303800303900313000313100A4
:100160003132003133003134003135003136003165
:10017000370031380031390032300032310032324C
:10018000003233003234003235003236003237006C
:10019000323800323900333000333100333200332B
:1001A000330033340033350033360033370033380F
:1001B000003339003430003431003432003433003D
:1001C00034340034350034360034370034380034E9
:1001D00039003530003531003532003533003534E3
:1001E00000353500353600353700353800353900F3
:1001F00000000A0B02090C0D0E08070304010000A1
:1002000000000000000000000000000000000000EE
:1002100000000000000000000000000012111000AB
:1002200000000000000000000000000000000000CE
:1002300000000000000000002200250028002B0024
:100240002E003100340002010000050108010B01FD
:1002500000002100240027002A002D003000330078
:1002600001010000040107010A0105050505070554
:1002700008080808020202020A0A08080404040422
:10028000010101010101010103030303030303034E
:10029000040707070C0C0C0C0C0C0C0C02020202DD
:1002A00006060606060606060B0B0B0B0B0B0B0BC6
:1002B0000102102020080810204010204080020178
:1002C000020108040201010204081020408080405D
:1002D000201008040201800402018040201008045C
:1002E00002010804020101020408102040800102FA
:1002F000040810204080C50811241FBECFEFD1E2B2
:10030000DEBFCDBF00E00CBF12E0A0E0B2E0EAE942
:10031000F2E100E00BBF02C007900D92AE34B107CE
:10032000D9F722E0AEE4B2E001C01D92A038B207D6
:10033000E1F711E0CCE7D1E000E006C02197010928
:10034000802FFE010E940709CB37D10780E0080704
:10035000A9F70E9461060C944B090C94000090E0F0
:10036000FC01E055FD4F249186599D4FFC0184917D
:10037000882399F090E0880F991FFC01E05BFD4F06
:10038000A591B491FC01EA5CFD4F859194918FB7E2
:10039000F894EC91E22BEC938FBF0895282F30E076
:1003A000F901E051FE4F9491F901E055FD4F449160
:1003B00026593D4FF9012491222309F435C0992390
:1003C00011F191509231F8F4E92FF0E08827E451CF
:1003D000FE4F8F4F0C9407091D022102FE011502EA
:1003E0001902030224022A022E02340238023C02BD
:1003F0004202460203024A025002540280918000E7
:100400008F7780938000E22FF0E0EE0FFF1FEA5C11
:10041000FD4FA591B4918FB7F894EC91611148C04C
:1004200040954E234C938FBF0895809180008F7D1F
:10043000E8CF80918000877FE4CF84B58F7784BD3B
:10044000E2CF84B58F7DFBCF8091B0008F77809312
:10045000B000D9CF8091B0008F7DF9CF809190000E
:100460008F7780939000CFCF809190008F7DF9CFD0
:1004700080919000877FF5CF8091A0008F77809347
:10048000A000C1CF8091A0008F7DF9CF8091A00006
:10049000877FF5CF809120018F7780932001B3CFA4
:1004A000809120018F7DF9CF80912001877FF5CF4A
:1004B0004E2BB8CF3FB7F8948091640290916502BB
:1004C000A0916602B091670226B5A89B05C02F3F98
:1004D00019F00196A11DB11D3FBFBA2FA92F982F6A
:1004E0008827BC01CD01620F711D811D911D42E065
:1004F000660F771F881F991F4A95D1F708958F922D
:100500009F92AF92BF92CF92DF92EF92FF924B01F8
:100510005C010E945A026B017C010E945A026C1914
:100520007D098E099F09683E734081059105A8F3F6
:1005300021E0821A9108A108B10888EEC80E83E074
:10054000D81EE11CF11C81149104A104B10429F707
:10055000FF90EF90DF90CF90BF90AF909F908F90E3
:100560000895AF92BF92CF92DF92EF92FF920F93D6
:100570001F93CF93DF936C017B018B01040F151F39
:10058000EB015E01AE18BF08C017D10759F06991A1
:10059000D601ED91FC910190F081E02DC6011995F5
:1005A000892B79F7C501DF91CF911F910F91FF90B2
:1005B000EF90DF90CF90BF90AF900895089590E0B6
:1005C00080E008958F929F92AF92BF92CF92DF9278
:1005D000EF92FF92CF93DF93EC01C62E2091500251
:1005E000309151024091520250915302AAE0B0E082
:1005F0000E940F090C2C000CDD08EE08FF08C60E47
:10060000D71EE81EF91EC0925002D0925102E0920D
:100610005202F092530284E6882E912CA12CB12C28
:10062000C701B601A50194010E94E8086883CA01C8
:10063000B901A50194010E94E8086983C701B601C8
:1006400020E137E240E050E00E94E808CA01B90129
:10065000A50194010E94E8086A83DF91CF91FF9081
:10066000EF90DF90CF90BF90AF909F908F900895C4
:10067000FC018281883134F481818C331CF48081C7
:100680008C332CF081E080934E0280E0089581E06D
:100690000895009769F0FC0101900020E9F7319777
:1006A000AF01481B590BBC0188E692E00C94B102E3
:1006B00090E080E0089583E192E00C944903CF93A9
:1006C000DF93EC0160E08E810E94CE0161E08E81BB
:1006D0000E94CE0160E08E810E94CE018BE891E005
:1006E0000197F1F7DF91CF910895CF92DF92EF92CA
:1006F000FF920F931F93CF93DF936C017C0187E0F0
:10070000E80EF11CD0E0C0E0062F10E0B8010C2E7E
:1007100002C0759567950A94E2F76170F7018191BF
:100720007F010E94CE012196C430D10579F7C60120
:10073000DF91CF911F910F91FF90EF90DF90CF90BD
:100740000C945F03CF92DF92EF92FF920F931F936F
:10075000CF93DF93EC01F62E642F8C810E94CE01A3
:100760008D818F3F19F060E00E94CE010F2D10E0C7
:100770008F8584FF25C06E0187E0C80ED11CF12C47
:10078000E12CB8010E2C02C0759567950A94E2F72A
:100790006170F60181916F010E94CE01FFEFEF1AA7
:1007A000FF0A88E0E816F10461F7CE01DF91CF91EE
:1007B0001F910F91FF90EF90DF90CF900C945F030B
:1007C000B80184E0759567958A95E1F7CE010E949E
:1007D00075036F2DCE01DF91CF911F910F91FF9087
:1007E000EF90DF90CF900C94750340E0682F88E67F
:1007F00092E00C94A203CF93DF93823029F490917E
:10080000770298609093770280937B0210927C022B
:1008100080E480937D0280E180937E0280E5809376
:100820007F0280916C020E94AF0180916D028F3F28
:1008300011F00E94AF0180916E020E94AF01C8E6E4
:10084000D2E09E01285632408091770284FD0AC092
:1008500084E090E02196281739073CF48E810E94AD
:10086000AF01EFCF88E090E0F5CF8BE39DE00197FB
:10087000F1F760E080916C020E94CE0160E080910F
:100880006E020E94CE0180916D028F3F19F060E0F0
:100890000E94CE018091770284FD39C063E088E632
:1008A00092E00E947503CBE4D6E4CE010197F1F704
:1008B00063E088E692E00E9475032197F1F763E018
:1008C00088E692E00E94750383E592E00197F1F7D4
:1008D00062E088E692E00E94750380917702806270
:1008E0000E94F50384E0809378028CE00E94F50377
:1008F00081E00E94F5038BE39FE10197F1F782E02D
:100900008093790286E0DF91CF910C94F5038062A9
:100910000E94F5038BE496E40197F1F7809177024A
:1009200080620E94F50383E592E00197F1F78091E0
:10093000770280620E94F503D0CF90917B02691705
:1009400010F06FEF690FE62FF0E0E859FD4F948942
:10095000890F80680C94F50341E00E94A20381E0B6
:1009600090E00895CF93DF93EC01FC01649141E0A6
:1009700088E692E00E94A203FE013196649141E074
:1009800088E692E0DF91CF910C94A2031F920F9220
:100990000FB60F9211242F933F938F939F93AF9392
:1009A000BF938091600290916102A0916202B09128
:1009B000630230915F0223E0230F2D3758F5019633
:1009C000A11DB11D20935F0280936002909361028C
:1009D000A0936202B09363028091640290916502D9
:1009E000A0916602B09167020196A11DB11D80938E
:1009F000640290936502A0936602B0936702BF9170
:100A0000AF919F918F913F912F910F900FBE0F90BB
:100A10001F90189526E8230F0296A11DB11DD2CF75
:100A20001F920F920FB60F9211240BB60F922F93B5
:100A30003F934F935F936F937F938F939F93AF9366
:100A4000BF93EF93FF9380915402882359F08091D4
:100A50005B02811107C080915802815008F4A7C041
:100A60008093580280914F02882359F080915C0254
:100A7000811107C080915502815008F4BEC0809357
:100A8000550281E00E94F5038BE39FE10197F1F7A6
:100A900060E080E00E949D0480915A0288310CF44D
:100AA000D2C00E945B036AE388E692E00E94AC0435
:100AB000809159028C330CF4CFC00E945B036AE32F
:100AC00088E692E00E94AC04809158028C330CF4CA
:100AD000CCC00E945B0361E080E00E949D04809195
:100AE000570288310CF4CAC00E945B036AE388E6AF
:100AF00092E00E94AC04809156028C330CF4C7C083
:100B00000E945B036AE388E692E00E94AC04809155
:100B100055028C330CF4C4C00E945B0380914E02DA
:100B2000882311F180910002882309F4C2C061E09A
:100B300085E10E94CE011092000280910302909103
:100B4000040201979093040280930302892B61F4BD
:100B500010924E028AE090E0909304028093030288
:100B600060E085E10E94CE0160E08CE00E949D047F
:100B700080910502909106020E94490387E492E069
:100B80009093060280930502FF91EF91BF91AF9180
:100B90009F918F917F916F915F914F913F912F9195
:100BA0000F900BBE0F900FBE0F901F9018959BE3F8
:100BB0009093580280915902815018F08093590205
:100BC00051CF9093590280915A02815080935A02DA
:100BD0008F3F09F047CF81E080934E021092580278
:100BE0001092590210925A021092540283E492E039
:100BF000909306028093050235CF9BE390935502B4
:100C000080915602815018F0809356023ACF90930B
:100C10005602809157028150809357028F3F09F00E
:100C200030CF81E080934E0210925502109256020E
:100C30001092570210924F0288E492E090930602BD
:100C4000809305021ECF23E08202C0011124845C40
:100C50009E4F0E94B20427CF23E08202C0011124DC
:100C6000845C9E4F0E94B2042ACF23E08202C0011E
:100C70001124845C9E4F0E94B2042DCF23E0820297
:100C8000C0011124845C9E4F0E94B2042FCF23E048
:100C90008202C0011124845C9E4F0E94B20432CFB4
:100CA00023E08202C0011124845C9E4F0E94B204A2
:100CB00035CF60E085E10E94CE0181E080930002A3
:100CC0003CCF789484B5826084BD84B5816084BD56
:100CD00085B5826085BD85B5816085BD80916E00DA
:100CE000816080936E00109281008091810082600B
:100CF0008093810080918100816080938100809148
:100D000080008160809380008091B1008460809336
:100D1000B1008091B00081608093B000809191001B
:100D20008260809391008091910081608093910016
:100D3000809190008160809390008091A1008260FA
:100D40008093A1008091A10081608093A100809197
:100D5000A00081608093A000809121018260809337
:100D600021018091210181608093210180912001E6
:100D700081608093200180917A00846080937A0062
:100D800080917A00826080937A0080917A008160FD
:100D900080937A0080917A00806880937A00109224
:100DA000C100F8941092A00088E08093A100809187
:100DB000A10085608093A10088E09DE39093A90045
:100DC0008093A80082E0809372008FE081B980EF69
:100DD00082B982E00E94FB0385E10E94AF0160E0DE
:100DE00085E10E94CE017894C5E2D2E049E3242E49
:100DF00042E0342E52E0452E512C6AE2E62E62E0AB
:100E0000F62EDD24D3948EEFC82E90E2892E92E048
:100E1000992E26E1A22E22E0B22E30E0632E30E0A1
:100E2000732E1091020280B1113009F0BDC0803FD5
:100E3000B1F162E370E080E090E00E947F021092E6
:100E4000020210930102C2B8000092B180B198135F
:100E500017C08DEF82B9000092B180B1981310C015
:100E60008BEF82B9000092B180B1981309C087EF6F
:100E700082B9000092B180B1981302C010920102B1
:100E800080910102813049F480B18E3E09F040C06A
:100E900081E380935D02D0925E0280EF82B98091FF
:100EA0005E02882371F110925E0210915D0261E092
:100EB0008FE00E949D04612F88E692E00E94AC04BE
:100EC00061E085E10E94CE0164E670E080E090E0A0
:100ED0000E947F0260E085E10E94CE01113409F09A
:100EE0006FC080915C0281113AC1D0925B02109276
:100EF00058021092590210925A02B0920602A09221
:100F000005026114710409F48CCF0E94000079CFAE
:100F100080B18E3D11F482E3BCCF80B18E3B11F4E1
:100F200083E3B7CF80B18D3E11F484E3B2CF80B1BB
:100F30008D3D11F485E3ADCF80B18D3B11F486E397
:100F4000A8CF80B18B3E11F487E3A3CF80B18B3D56
:100F500011F488E39ECF80B18B3B11F489E399CFE4
:100F600080B1873D11F480E394CF80B18E3711F4C6
:100F700081E48FCF80B18D3711F482E48ACF80B1C4
:100F80008B3711F483E485CF80B1873711F484E483
:100F900080CF80B1873B11F485E47BCF80B1873E61
:100FA00009F079CF86E475CF803F09F078CF68ECFF
:100FB00070E080E090E00E947F02D09202026FCF4A
:100FC000123499F480915B028111C9C0D0925C0205
:100FD0001092550210925602109257028BE192E045
:100FE00090930602809305028CCF1334A9F580916B
:100FF0005B02882321F188E592E00E943803882370
:1010000089F0D092540290920602809205021092CA
:101010005B021092500210925102109252021092F2
:1010200053026FCF1092540210925802109259023C
:1010300010925A02D0930602C0930502E8CF109294
:101040005402109258021092590210925A02F092D1
:101050000602E092050255CF143469F580915C02D6
:101060008823F1F085E592E00E943803882359F047
:10107000D0924F028FE292E0909306028093050295
:1010800010925C02C6CF10924F021092550210923D
:10109000560210925702D0930602C0930502F0CF79
:1010A00010924F021092550210925602109257025F
:1010B00084E392E095CF163471F580915B0288232A
:1010C000A9F010925B0210925402109258021092F2
:1010D000590210925A02F0920602E0920502D09252
:1010E0004E02509204024092030293CF80915C0220
:1010F0008823A9F310925C0210924F0210925502BD
:10110000109256021092570284E392E090930602E6
:1011100080930502E4CF153411F580915C02882399
:1011200081F085E592E00E943803882329F030920F
:10113000060220920502E5CED0930602C093050276
:10114000E0CE80915B02882309F4DBCE88E592E053
:101150000E943803882381F38EE392E041CF60ED53
:10116000610F6A3008F0CDCE80915B02882329F0B0
:1011700088E592E00E94E202C4CE80915C0288235E
:1011800009F4BFCE85E592E0F5CFE8E6F2E0138200
:1011900012828BE092E0918380838BE084838CE0E9
:1011A00085838DE0868385E2878384E2808783E27E
:1011B000818782E2828781E2838780E284878FE170
:1011C00085878EE1868780E1878781E00C94FB0329
:1011D000052E97FB1EF400940E94FF0857FD07D0D0
:1011E0000E941A0907FC03D04EF40C94FF08509596
:1011F0004095309521953F4F4F4F5F4F0895909503
:101200008095709561957F4F8F4F9F4F0895EE0F9A
:10121000FF1F881F8BBF0790F691E02D19940E9445
:101220003C09A59F900DB49F900DA49F800D911D2A
:1012300011240895A1E21A2EAA1BBB1BFD010DC0AB
:10124000AA1FBB1FEE1FFF1FA217B307E407F50776
:1012500020F0A21BB30BE40BF50B661F771F881F52
:10126000991F1A9469F760957095809590959B01E8
:10127000AC01BD01CF010895A29FB001B39FC00191
:10128000A39F700D811D1124911DB29F700D811DB2
:101290001124911D0895F894FFCF0101010A004720
:1012A0000200000000AC04B102DF02DE024545008E
:1012B0005345543100534554320054314F4E004F82
:1012C000464C570054314F460054324F4E00543272
:1012D0004F460054324F4B0054314F4B0054312194
:0812E00021005432212100001D
:020000040003F7
:10E000000D9489F10D94B2F10D94B2F10D94B2F129
:10E010000D94B2F10D94B2F10D94B2F10D94B2F1F0
:10E020000D94B2F10D94B2F10D94B2F10D94B2F1E0
:10E030000D94B2F10D94B2F10D94B2F10D94B2F1D0
:10E040000D94B2F10D94B2F10D94B2F10D94B2F1C0
:10E050000D94B2F10D94B2F10D94B2F10D94B2F1B0
:10E060000D94B2F10D94B2F10D94B2F10D94B2F1A0
:10E070000D94B2F10D94B2F10D94B2F10D94B2F190
:10E080000D94B2F10D94B2F10D94B2F10D94B2F180
:10E090000D94B2F10D94B2F10D94B2F10D94B2F170
:10E0A0000D94B2F10D94B2F10D94B2F10D94B2F160
:10E0B0000D94B2F10D94B2F10D94B2F10D94B2F150
:10E0C0000D94B2F10D94B2F10D94B2F10D94B2F140
:10E0D0000D94B2F10D94B2F10D94B2F10D94B2F130
:10E0E0000D94B2F141546D656761323536300041AF
:10E0F000726475696E6F206578706C6F72657220DE
:10E1000073746B3530305632206279204D4C530099
:10E11000426F6F746C6F616465723E004875683F52
:10E1200000436F6D70696C6564206F6E203D200048
:10E130004350552054797065202020203D20005FF9
:10E140005F4156525F415243485F5F3D2000415658
:10E1500052204C696243205665723D20004743437C
:10E160002056657273696F6E203D20004350552024
:10E1700049442020202020203D20004C6F7720663D
:10E18000757365202020203D20004869676820665F
:10E190007573652020203D200045787420667573D6
:10E1A00065202020203D20004C6F636B2066757336
:10E1B000652020203D20004D617220203720323024
:10E1C000313300312E362E3800342E332E350056A2
:10E1D00023202020414444522020206F7020636F70
:10E1E00064652020202020696E73747275637469E1
:10E1F0006F6E2061646472202020496E74657272B3
:10E20000757074006E6F20766563746F7200726A49
:10E210006D702020006A6D70200057686174207056
:10E220006F72743A00506F7274206E6F7420737541
:10E2300070706F72746564004D7573742062652030
:10E2400061206C6574746572002000577269747483
:10E25000696E672045450052656164696E672045B7
:10E26000450045452065727220636E743D00504F35
:10E27000525400303D5A65726F2061646472003FF1
:10E280003D43505520737461747300403D454550C3
:10E29000524F4D207465737400423D426C696E6B41
:10E2A000204C454400453D44756D70204545505215
:10E2B0004F4D00463D44756D7020464C415348001B
:10E2C000483D48656C70004C3D4C69737420492F83
:10E2D0004F20506F72747300513D51756974005234
:10E2E0003D44756D702052414D00563D73686F7707
:10E2F00020696E7465727275707420566563746FF0
:10E30000727300593D506F727420626C696E6B00BD
:10E310002A0011241FBECFEFD1E2DEBFCDBF01E046
:10E320000CBF12E0A0E0B2E0EEE1FDEF03E00BBFB6
:10E3300002C007900D92A030B107D9F712E0A0E01B
:10E34000B2E001C01D92AE30B107E1F70F9460F367
:10E350000D948DFE01E20EBF0FEF0DBF11241FBE05
:10E360000D9460F30D9400F020E030E040ED57E0B4
:10E3700005C0FA013197F1F72F5F3F4F2817390792
:10E38000C0F308959C01260F311DC901A0E0B0E043
:10E390002F5F3F4FABBFFC018791882361F08093D3
:10E3A000C6008091C00086FFFCCF8091C0008064D1
:10E3B0008093C000EACF08958DE08093C6008091DD
:10E3C000C00086FFFCCF8091C00080648093C000B5
:10E3D0008AE08093C6008091C00086FFFCCF8091C8
:10E3E000C00080648093C00008950F94C2F10F9420
:10E3F000DCF10895FC019081992359F09093C600B7
:10E400008091C00086FFFCCF8091C0008064809323
:10E41000C0003196992379F70895282F982F929567
:10E420009F70892F805D8A3308F0895F8093C600D2
:10E430008091C00086FFFCCF8091C00080648093F3
:10E44000C000822F8F70982F905D9A3308F0995FEB
:10E450009093C6008091C00086FFFCCF8091C000E1
:10E4600080648093C00008959C01FB01853691056E
:10E470001CF46330710594F0C90164E670E00F94F8
:10E480002EFE605D7F4F6093C6008091C00086FFC6
:10E49000FCCF8091C00080648093C0002B30310598
:10E4A00014F43297B4F0C90164E670E00F942EFEC4
:10E4B0006AE070E00F942EFE605D7F4F6093C600AF
:10E4C0008091C00086FFFCCF8091C0008064809363
:10E4D000C000C9016AE070E00F942EFEC0968093E0
:10E4E000C6008091C00086FFFCCF8091C000806490
:10E4F0008093C00008951F93182F8EE692EE60E07F
:10E500000F94C2F11093C6008091C00086FFFCCF2B
:10E510008091C00080648093C0000F94DCF11F9153
:10E5200008952F923F924F925F926F927F928F92B7
:10E530009F92AF92BF92CF92DF92EF92FF920F9392
:10E540001F93DF93CF93CDB7DEB762970FB6F894E2
:10E55000DEBF0FBECDBF382E622ECA01DB015C01CB
:10E560006D01772420E2222E2E010894411C511CBB
:10E570008BC081E0A81680E0B80681E0C80680E084
:10E58000D80628F0C601AA27BB270F940DF2BB2797
:10E59000AD2D9C2D8B2D0F940DF28A2D0F940DF225
:10E5A0002092C6008091C00086FFFCCF8091C00001
:10E5B00080648093C0009DE29093C6008091C0006B
:10E5C00086FFFCCF8091C00080648093C0002092C1
:10E5D000C6008091C00086FFFCCF8091C00080649F
:10E5E0008093C00019828601750188249924A1E0D6
:10E5F0003A1651F03A1620F0B2E03B1661F409C029
:10E600000BBFF701779007C0C7010F9477FE782EF4
:10E6100002C0F7017080872D0F940DF22092C60082
:10E620008091C00086FFFCCF8091C0008064809301
:10E63000C000872D8052F401EF70F0708F3520F408
:10E64000E40DF51D708204C0E40DF51D8EE280839B
:10E650000894E11CF11C011D111D0894811C911CE2
:10E6600090E18916910409F0C2CF80E190E0A0E02A
:10E67000B0E0A80EB91ECA1EDB1E198AC2010F9493
:10E68000FAF10F94DCF16A94662009F072CF629679
:10E690000FB6F894DEBF0FBECDBFCF91DF911F91B3
:10E6A0000F91FF90EF90DF90CF90BF90AF909F9031
:10E6B0008F907F906F905F904F903F902F90089534
:10E6C0002F923F924F925F926F927F928F929F9282
:10E6D000AF92BF92CF92DF92EF92FF920F931F9370
:10E6E000DF93CF93CDB7DEB7CD53D1400FB6F894BB
:10E6F000DEBF0FBECDBF01E20EBF0FEF0DBF94B75F
:10E70000F894A89514BE80916000886180936000A1
:10E7100010926000789493FF05C0E0910002F091A0
:10E7200001021995279A2F9A8091C00082608093E8
:10E73000C00080E18093C40088E18093C1000000A4
:10E74000EE24FF24870144E0A42EB12CCC24DD2448
:10E7500024C0C5010197F1F70894E11CF11C011DCB
:10E76000111D21E2E2162EE4F20620E0020720E06D
:10E77000120718F031E0C32ED12CC801B70127ECE5
:10E780003BE140E050E00F9441FE611571058105C9
:10E79000910519F485B1805885B98091C00087FD35
:10E7A00003C0C114D104A9F2A6014F5F5F4FC25E3E
:10E7B000DE4F59834883CE51D140C25EDE4F8881FF
:10E7C0009981CE51D140019711F00D9410FEC05D9A
:10E7D000DE4F19821882C053D14060E0C15DDE4F28
:10E7E0001882CF52D14088249924C35DDE4F19820C
:10E7F0001882CD52D140C05EDE4F188219821A8233
:10E800001B82C052D140CE5CDE4F188219821A8220
:10E810001B82C253D140EE24FF2487010BBFF701B6
:10E8200007911691C45CDE4F19830883CC53D14005
:10E830000D940BFEC25EDE4F28813981CE51D1404E
:10E840002130310509F52091C600C25EDE4F1982E4
:10E850001882CE51D14022C02F5F3F4F4F4F5F4FA4
:10E86000213082E138078AE7480780E0580780F0C6
:10E87000C45CDE4FE881F981CC53D140EF5FFF4F9C
:10E8800019F0EE27FF27099420E030E040E050E047
:10E890008091C00087FFE0CF2091C600C35DDE4FAE
:10E8A00048815981CD52D1404F5F5F4FC35DDE4FEC
:10E8B00059834883CD52D140213209F063C64A3092
:10E8C000510508F05FC60894811C911C53E0851621
:10E8D000910409F059C600E010E018C081E280936D
:10E8E000C6008091C00086FFFCCF8091C00080648C
:10E8F0008093C0002F5F3F4F2931310579F70F9486
:10E90000DCF10F5F1F4F0530110519F020E030E0FA
:10E91000E5CF10920A0210920B0210920C02109294
:10E920000D02109206021092070210920802109235
:10E930000902109202021092030210920402109235
:10E9400005028FEE90EE60E00F94F5F180E191EE1C
:10E9500060E00F94C2F18091C00087FFFCCF9091DE
:10E96000C600903608F09F759032B8F09093C600BC
:10E970008091C00086FFFCCF8091C00080648093AE
:10E98000C000A0E2A093C6008091C00086FFFCCF2B
:10E990008091C00080648093C000983409F4D7C18E
:10E9A0009934B8F4923409F459C1933458F490333B
:10E9B00019F1903308F4E3C59F33A1F1903409F0C5
:10E9C000DEC5BDC0953409F470C1963409F0D7C5D1
:10E9D00098C1923509F42BC2933538F49C3409F46C
:10E9E000F5C1913509F0CBC518C2963509F445C279
:10E9F000993509F0C4C567C483E792EE62E00F94CD
:10EA0000F5F110920602109207021092080210927D
:10EA1000090210920A0210920B0210920C0210923C
:10EA20000D0213C18FE792EE62E00F94F5F18FEEC5
:10EA300090EE60E00F94F5F181E291EE60E00F94CA
:10EA4000C2F187EB91EE60E00F94F5F180E391EE77
:10EA500060E00F94C2F184EE90EE60E00F94F5F167
:10EA60008FE391EE60E00F94C2F186E090E061E008
:10EA700070E00F9434F20F94DCF18DE591EE60E0DC
:10EA80000F94C2F189EC91EE60E00F94F5F18EE401
:10EA900091EE60E00F94C2F183EC91EE60E00F9490
:10EAA000F5F18CE691EE60E00F94C2F18EE10F94E7
:10EAB0000DF288E90F940DF281E00F940DF20F949E
:10EAC000DCF18BE791EE60E00F94C2F119E0E0E039
:10EAD000F0E010935700E4918E2F0F940DF20F94F5
:10EAE000DCF18AE891EE60E00F94C2F1E3E0F0E03F
:10EAF00010935700E4918E2F0F940DF20F94DCF1D8
:10EB000089E991EE60E00F94C2F1E2E0F0E0109349
:10EB10005700E4918E2F0F940DF20F94DCF188EAE8
:10EB200091EE60E00F94C2F1E1E0F0E01093570045
:10EB30001491812F0F940DF20F94DCF107CF8BE825
:10EB400092EE62E00F94F5F18BE492EE60E00F94A8
:10EB5000F5F10F94DCF100E010E019C0C8016F2D51
:10EB60000F947FFEFF2031F489E492EE60E00F9471
:10EB7000C2F10BC0F092C6008091C00086FFFCCFAE
:10EB80008091C00080648093C0000F5F1F4FC80158
:10EB900081519F41A0E0B0E0ABBFFC01F790BAE229
:10EBA000FB1621F0E2E000301E07C1F60F94DCF105
:10EBB0000F94DCF187E592EE60E00F94F5F10F948D
:10EBC000DCF1CC24DD2400E010E01EC0C8010F946D
:10EBD00077FEF82E882331F489E492EE60E00F94FA
:10EBE000C2F10BC08093C6008091C00086FFFCCFAD
:10EBF0008091C00080648093C000FE1419F00894D6
:10EC0000C11CD11C0F5F1F4FC80181519F41A0E063
:10EC1000B0E0ABBFFC01E790FAE2EF1621F022E092
:10EC20000030120799F60F94DCF10F94DCF182E6C4
:10EC300092EE60E00F94C2F1C60161E070E00F94C3
:10EC400034F20F94DCF10F94DCF110920202109276
:10EC50000302109204021092050278CE89E992EE26
:10EC600062E00F94F5F1279A2F9A16C02F9880E052
:10EC700090E0E0EDF7E03197F1F7019684369105E9
:10EC8000C1F72F9A80E090E0E0EDF7E03197F1F7DF
:10EC9000019684369105C1F78091C00087FFE6CFC9
:10ECA0008091C00087FFFCCF64C485EA92EE62E0E9
:10ECB0000F94F5F140910202509103026091040219
:10ECC0007091050281E020E10F9491F2809102029F
:10ECD00090910302A0910402B091050280509F4FD1
:10ECE000AF4FBF4F8093020290930302A0930402A0
:10ECF000B093050280509041A040B04008F426CE69
:10ED0000A4CF83EB92EE62E00F94F5F140910602FE
:10ED100050910702609108027091090280E020E1A1
:10ED20000F9491F28091060290910702A09108023F
:10ED3000B091090280509F4FAF4FBF4F80930602A2
:10ED400090930702A0930802B0930902FFCD80ECD4
:10ED500092EE62E00F94F5F183E792EE60E00F949B
:10ED6000F5F18FE792EE60E00F94F5F18BE892EE0B
:10ED700060E00F94F5F189E992EE60E00F94F5F10F
:10ED800085EA92EE60E00F94F5F183EB92EE60E09D
:10ED90000F94F5F180EC92EE60E00F94F5F187ECC2
:10EDA00092EE60E00F94F5F188ED92EE60E00F9442
:10EDB000F5F18FED92EE60E00F94F5F18AEE92EEB0
:10EDC00060E00F94F5F183E093EEBDCD87EC92EE19
:10EDD00062E00F94F5F181E40F947BF282E40F94EA
:10EDE0007BF283E40F947BF284E40F947BF285E45E
:10EDF0000F947BF286E40F947BF287E40F947BF20E
:10EE000088E40F947BF28AE40F947BF28BE40F94F6
:10EE10007BF28CE40F947BF299CD88ED92EE62E068
:10EE20000F94F5F1772473948824992409C48FED05
:10EE300092EE62E00F94F5F140910A0250910B02BC
:10EE400060910C0270910D0282E020E10F9491F22A
:10EE500080910A0290910B02A0910C02B0910D02D8
:10EE600080509F4FAF4FBF4F80930A0290930B0289
:10EE7000A0930C02B0930D0269CD8AEE92EE62E08F
:10EE80000F94F5F184EE90EE60E00F94F5F18FECC5
:10EE900091EE60E00F94F5F1662477244301CC5D98
:10EEA000DE4F19821882C452D140D401C301B695F5
:10EEB000A79597958795CA5DDE4F88839983AA8326
:10EEC000BB83C652D140CC5DDE4FA881B981C4520C
:10EED000D1401196CC5DDE4FB983A883C452D14096
:10EEE000CD0162E070E00F9434F2B0E2B093C6005E
:10EEF0008091C00086FFFCCF8091C0008064809329
:10EF0000C000EDE2E093C6008091C00086FFFCCF18
:10EF10008091C00080648093C000F0E2F093C6004E
:10EF20008091C00086FFFCCF8091C00080648093F8
:10EF3000C000CA5DDE4FE880F9800A811B81C6529D
:10EF4000D140BB27A12F902F8F2D0F940DF2CA5DBA
:10EF5000DE4F8881C652D1400F940DF2B0E2FB2EF5
:10EF6000F092C6008091C00086FFFCCF8091C00067
:10EF700080648093C0000DE30093C6008091C000C0
:10EF800086FFFCCF8091C00080648093C00010E2B7
:10EF90001093C6008091C00086FFFCCF8091C00016
:10EFA00080648093C0008BBEF3012791C65DDE4F65
:10EFB0002883CA52D140A22EBB24CC24DD2408943D
:10EFC000611C711C811C911C8BBEF3018791282E42
:10EFD0003324442455240894611C711C811C911C09
:10EFE0008BBEF3013791C55DDE4F3883CB52D140E4
:10EFF0000894611C711C811C911C8BBEF30147910C
:10F00000C45DDE4F4883CC52D140ADEFEA2EAFEF66
:10F01000FA2EAFEF0A2FAFEF1A2F6E0C7F1C801E57
:10F02000911E142D032DF22CEE24EA0CFB1C0C1D5A
:10F030001D1D0F940DF220E22093C6008091C000A8
:10F0400086FFFCCF8091C00080648093C000C65DC5
:10F05000DE4F8881CA52D1400F940DF230E23093D6
:10F06000C6008091C00086FFFCCF8091C000806404
:10F070008093C000C45DDE4F8881CC52D1400F9494
:10F080000DF240E24093C6008091C00086FFFCCFA5
:10F090008091C00080648093C000C55DDE4F888190
:10F0A000CB52D1400F940DF250E25093C6008091A4
:10F0B000C00086FFFCCF8091C00080648093C000B8
:10F0C0008FEFE8168FEFF80680E0080780E018075A
:10F0D00031F484E092EE60E00F94C2F1DFC0D80119
:10F0E000C7018070907CA070B0708050904CA040A0
:10F0F000B040D1F52FEF3FE340E050E0E222F322B1
:10F1000004231523CA5DDE4FA880B980CA80DB8046
:10F11000C652D140AE0CBF1CC01ED11EAA0CBB1CD7
:10F12000CC1CDD1C8EE092EE60E00F94C2F1BB2798
:10F13000A12F902F8F2D0F940DF28E2D0F940DF285
:10F1400030E23093C6008091C00086FFFCCF8091F2
:10F15000C00080648093C0004EE34093C60080915D
:10F16000C00086FFFCCF87C08EE09EEFA0E0B0E03D
:10F17000E822F9220A231B239CE0E91694E9F90608
:10F1800090E0090790E0190709F088C0C45DDE4FE0
:10F19000A881CC52D140EA2EFF2400E010E0102FCD
:10F1A0000F2DFE2CEE24C55DDE4FB881CB52D14031
:10F1B000EB0EF11C011D111DD601C501817090706F
:10F1C000A070B070DC0199278827E80EF91E0A1F8D
:10F1D0001B1F20EF30E040E050E0A222B322C42207
:10F1E000D52241E1AA0CBB1CCC1CDD1C4A95D1F7F1
:10F1F000EA0CFB1C0C1D1D1D81E090E0A0E0B0E0BE
:10F20000282239224A225B2235E1220C331C441C7D
:10F21000551C3A95D1F7E20CF31C041D151D57013E
:10F220006801AA0CBB1CCC1CDD1C85E192EE60E0E1
:10F230000F94C2F1C801AA27BB270F940DF2BB2778
:10F24000A12F902F8F2D0F940DF28E2D0F940DF274
:10F2500090E29093C6008091C00086FFFCCF809121
:10F26000C00080648093C000AEE3A093C60080918C
:10F27000C00086FFFCCF8091C00080648093C000F6
:10F28000C601AA27BB270F940DF2BB27AD2D9C2DDD
:10F290008B2D0F940DF28A2D0F940DF20F94DCF14B
:10F2A000CC5DDE4FE881F981C452D140F99709F471
:10F2B0004DCBF4E0EF2EF12C012D112D6E0C7F1CA7
:10F2C000801E911EF2CD83E093EE62E00F94F5F183
:10F2D0008AE192EE60E00F94C2F18091C00087FF56
:10F2E000FCCF1091C6001F751093C6008091C0001E
:10F2F00086FFFCCF8091C00080648093C0000F9493
:10F30000DCF1812F81548A3108F036C1163409F4BA
:10F3100095C0173490F4133409F44EC0143430F40B
:10F320001134F1F0123409F01DC130C0143409F465
:10F3300059C0153409F016C16BC01A3409F4C4C0A1
:10F340001B3438F4173409F48FC0183409F00AC19B
:10F35000A1C01B3409F4D2C01C3409F003C1E8C0B9
:10F360008FEF81B90DC082B1809582B980E090E0C5
:10F37000E0EDF7E03197F1F70196883C9105C1F790
:10F380008091C00087FFEFCF12B8EFC08FEF84B934
:10F390000DC085B1809585B980E090E0E0EDF7E0A3
:10F3A0003197F1F70196883C9105C1F78091C00033
:10F3B00087FFEFCF15B8D9C08FEF87B90DC088B1DF
:10F3C000809588B980E090E0E0EDF7E03197F1F7C3
:10F3D0000196883C9105C1F78091C00087FFEFCF6F
:10F3E00018B8C3C08FEF8AB90DC08BB180958BB9A7
:10F3F00080E090E0E0EDF7E03197F1F70196883C8E
:10F400009105C1F78091C00087FFEFCF1BB8ADC059
:10F410008FEF8DB90DC08EB180958EB980E090E0F0
:10F42000E0EDF7E03197F1F70196883C9105C1F7DF
:10F430008091C00087FFEFCF1EB897C08FEF80BBD1
:10F440000DC081B3809581BB80E090E0E0EDF7E0F6
:10F450003197F1F70196883C9105C1F78091C00082
:10F4600087FFEFCF11BA81C08FEF83BB0DC084B38C
:10F47000809584BB80E090E0E0EDF7E03197F1F714
:10F480000196883C9105C1F78091C00087FFEFCFBE
:10F4900014BA6BC08FEF809301010FC080910201FD
:10F4A00080958093020180E090E0E0EDF7E03197F5
:10F4B000F1F70196883C9105C1F78091C00087FF64
:10F4C000EDCF1092020151C08FEF809304010FC065
:10F4D0008091050180958093050180E090E0E0ED4A
:10F4E000F7E03197F1F70196883C9105C1F78091DB
:10F4F000C00087FFEDCF1092050137C08FEF8093DA
:10F5000007010FC08091080180958093080180E079
:10F5100090E0E0EDF7E03197F1F70196883C910536
:10F52000C1F78091C00087FFEDCF109208011DC088
:10F530008FEF80930A010FC080910B01809580931B
:10F540000B0180E090E0E0EDF7E03197F1F70196F4
:10F55000883C9105C1F78091C00087FFEDCF1092E4
:10F560000B0103C085E292EEEEC98091C00087FFD7
:10F57000FCCF8091C600EAC988E392EEE4C98CE131
:10F5800091EEE1C988249924933011F1943028F444
:10F59000913089F09230B8F408C0953061F195301F
:10F5A000F0F0963009F048C043C02B3109F042C951
:10F5B00091E06BE13FC96227C15DDE4F2883CF52E6
:10F5C000D14092E037C9B22FA0E0622793E032C960
:10F5D000822F90E0A82BB92B622794E02BC92E3004
:10F5E00009F039C3622795E0C05DDE4F19821882A9
:10F5F000C053D1401FC9E1E0F0E0EC0FFD1FC05D3A
:10F60000DE4F08811981C053D140E00FF11F2083E4
:10F610000F5F1F4FC05DDE4F19830883C053D14079
:10F6200062270A171B0709F005C9D80196E002C92D
:10F63000261709F010C303C0973009F0FBC87724E0
:10F640009981933109F412C19431C8F4963009F4C8
:10F65000D8C0973050F4923009F406C1933009F4C1
:10F660006DC0913009F059C253C0913109F477C08F
:10F67000923108F0BBC0903109F04FC2F5C098310B
:10F6800009F487C0993150F4953109F4EFC09531F0
:10F6900008F4C6C1963109F040C2C2C19A3109F4DA
:10F6A0006CC09A3108F491C09B3109F45BC09D3164
:10F6B00009F033C29D81903359F48F81882311F46E
:10F6C0009EE11CC0813011F091E018C098E916C08D
:10F6D000892F807591F0903539F4E0E0F0E089E011
:10F6E0008093570094910AC0983539F4E3E0F0E034
:10F6F00089E080935700949101C090E01A821B82A8
:10F700008D818C831D829E831F8227E030E009C299
:10F710001A8288E08B8381E48C8386E58D8382E581
:10F720008E8389E48F8383E5888780E589878FE5E9
:10F730008A8782E38B872BE030E0F3C18A818139AD
:10F7400041F0823941F0803911F48FE005C080E04A
:10F7500003C082E001C08AE01A828B8344C0772410
:10F76000739482C08D81882311F48EE12CC0813086
:10F7700011F081E028C088E926C01A82E1E0F0E0BB
:10F7800089E08093570084918B831C8224E030E0D1
:10F79000C8C18B81803589F48C81883039F4E2E0EE
:10F7A000F0E089E08093570084910DC0E0E0F0E044
:10F7B00089E080935700849106C0E3E0F0E089E09F
:10F7C0008093570084911A82DFCF8D81836C99E0FA
:10F7D000E1E0F0E0082E90935700E89507B600FCB2
:10F7E000FDCF1A821B8223E030E09BC180EC8A832C
:10F7F000CE5CDE4F188219821A821B82C253D1401E
:10F800008EC18A8190E0A0E0B0E0582F44273327D2
:10F8100022278B8190E0A0E0B0E0DC0199278827C7
:10F82000282B392B4A2B5B2B8D8190E0A0E0B0E098
:10F83000282B392B4A2B5B2B8C8190E0A0E0B0E089
:10F84000BA2FA92F982F8827282B392B4A2B5B2BCF
:10F85000220F331F441F551FC05EDE4F288339839C
:10F860004A835B83C052D1401A8259C13A81C95C34
:10F87000DE4F3883C753D140CA5CDE4F1882C6536F
:10F88000D1408B81C82EDD24CA5CDE4F488159816E
:10F89000C653D140C42AD52A933109F082C0CE5C28
:10F8A000DE4F88819981AA81BB81C253D1408050AB
:10F8B000904CA340B04030F583E0CE5CDE4FE88052
:10F8C000F9800A811B81C253D140F70100935B008C
:10F8D00080935700E89507B600FCFDCFCE5CDE4F65
:10F8E000088119812A813B81C253D14000501F4FAA
:10F8F0002F4F3F4FCE5CDE4F088319832A833B8313
:10F90000C253D140C05EDE4F488159816A817B81FC
:10F91000C052D140DE011B9631E08C9111962C91A2
:10F9200011971296C75CDE4F2883C953D140C85C3B
:10F93000DE4F1882C853D14090E0C85CDE4FE881AA
:10F94000F981C853D1408E2B9F2B0C01FA01609393
:10F950005B0030935700E89511244E5F5F4F6F4F67
:10F960007F4F0EEFE02E0FEFF02ECE0CDF1CC114F8
:10F97000D10499F685E0C05EDE4F088119812A81A5
:10F980003B81C052D140F80120935B008093570027
:10F99000E89507B600FCFDCF81E180935700E8951C
:10F9A00035C0C05EDE4F88819981AA81BB81C0527B
:10F9B000D140B695A795979587957C018601ABE0D8
:10F9C000AA2EB12CAC0EBD1E0BC0D5016D915D01F0
:10F9D000C7010F947FFE0894E11CF11C01501040F8
:10F9E0000115110591F7A60160E070E0440F551F65
:10F9F000661F771FC05EDE4FE880F9800A811B8199
:10FA0000C052D1404E0D5F1D601F711F1A82C05E33
:10FA1000DE4F488359836A837B83C052D1407FC0C5
:10FA2000FA80C55CDE4FF882CB53D140C65CDE4F16
:10FA30001882CA53D1408B81C82EDD24C65CDE4FAC
:10FA400008811981CA53D140C02AD12A1A828981DA
:10FA5000BE016D5F7F4F843121F59601C05EDE4FA0
:10FA6000E880F9800A811B81C052D1400BBFF701A9
:10FA700087919691DB018C9311969C936E5F7F4FDB
:10FA8000D801C7010296A11DB11DC05EDE4F88835B
:10FA90009983AA83BB83C052D14022503040F1F6F3
:10FAA00036C0C05EDE4F288139814A815B81C052F9
:10FAB000D1400894C108D108760100E010E0089414
:10FAC000C11CD11C0894E11CF11C011D111DE20E8A
:10FAD000F31E041F151F21BDBB27A52F942F832FB5
:10FAE00082BD2F5F3F4F4F4F5F4FF89A80B5DB01CC
:10FAF0008D93BD012E153F054007510761F7C05E8C
:10FB0000DE4F288339834A835B83C052D1409601FC
:10FB10002D5F3F4FFB01108204C080EC8A8322E0FE
:10FB200030E08BE18093C6008091C00086FFFCCF5F
:10FB30008091C00080648093C000C15DDE4FF88179
:10FB4000CF52D140F093C6008091C00086FFFCCF19
:10FB50008091C00080648093C000432F3093C60022
:10FB60008091C00086FFFCCF8091C00080648093AC
:10FB7000C000922F2093C6008091C00086FFFCCF6A
:10FB80008091C00080648093C0008EE08093C600A6
:10FB90008091C00086FFFCCF8091C000806480937C
:10FBA000C00065E1C15DDE4FE880CF52D1406E25D7
:10FBB00069276427FE01319610C090819093C6009A
:10FBC0008091C00086FFFCCF31968091C000806498
:10FBD0008093C0006927215030402115310569F715
:10FBE0006093C6008091C00086FFFCCF8091C0006A
:10FBF00080648093C00085B1805885B9772081F4F6
:10FC0000C15DDE4F0881CF52D1400F5FC15DDE4F35
:10FC10000883CF52D14090E0A0E0B0E00D941AF4F8
:10FC200027982F9880E090E020ED37E0F901319798
:10FC3000F1F7019684369105C9F700008091C00064
:10FC40008D7F8093C00081E180935700E895EE2777
:10FC5000FF270994FFCF90E00D941AF497FB092E2B
:10FC600007260AD077FD04D02ED006D000201AF443
:10FC7000709561957F4F0895F6F7909581959F4F08
:10FC80000895A1E21A2EAA1BBB1BFD010DC0AA1FDD
:10FC9000BB1FEE1FFF1FA217B307E407F50720F0F5
:10FCA000A21BB30BE40BF50B661F771F881F991F70
:10FCB0001A9469F760957095809590959B01AC01B9
:10FCC000BD01CF010895AA1BBB1B51E107C0AA1FAC
:10FCD000BB1FA617B70710F0A61BB70B881F991FED
:10FCE0005A95A9F780959095BC01CD010895F99991
:10FCF000FECF92BD81BDF89A992780B50895262F31
:10FD0000F999FECF1FBA92BD81BD20BD0FB6F89400
:0EFD1000FA9AF99A0FBE01960895F894FFCF63
:00000001FF
