:100000000C947C010C94AD010C94AD010C94AD01E9
:100010000C94AD010C94AD010C94AD010C94AD01A8
:100020000C94AD010C94AD010C94AD010C94AD0198
:100030000C94AD010C94AD010C94AD010C94AD0188
:100040000C94AD010C94AD010C94AD010C94AD0178
:100050000C94AD010C94AD010C94AD010C94C6044C
:100060000C94AD010C94AD010C94AD010C94AD0158
:100070000C94AD010C94AD010C94AD010C94AD0148
:100080000C94AD010C94AD010C94AD010C94AD0138
:100090000C94AD010C94AD010C94AD010C94AD0128
:1000A0000C94AD010C94AD010C9410050C94AD01B1
:1000B0000C94AD010C94AD010C94AD010C94AD0108
:1000C0000C94AD010C94AD010C94AD010C94AD01F8
:1000D0000C94AD010C94AD010C94AD010C94AD01E8
:1000E0000C94AD010C9438020C9419020C94B102DA
:1000F0000C9434020C94C5080C9403020C94540222
:100100000C94DF020C9424020C9446020C94DE0240
:100110000C943C020C9442020C94AC040C941D020E
:100120000C9450020C942E020C94FE010C942102AB
:100130000C9415020C942A020C944A0230300030C0
:10014000310030320030330030340030350030368A
:1001500000303700303800303900313000313100A4
:100160003132003133003134003135003136003165
:10017000370031380031390032300032310032324C
:10018000003233003234003235003236003237006C
:10019000323800323900333000333100333200332B
:1001A000330033340033350033360033370033380F
:1001B000003339003430003431003432003433003D
:1001C00034340034350034360034370034380034E9
:1001D00039003530003531003532003533003534E3
:1001E00000353500353600353700353800353900F3
:1001F00000000A0B02090C0D0E08070304010000A1
:1002000000000000000000000000000000000000EE
:1002100000000000000000000000000012111000AB
:1002200000000000000000000000000000000000CE
:1002300000000000000000002200250028002B0024
:100240002E003100340002010000050108010B01FD
:1002500000002100240027002A002D003000330078
:1002600001010000040107010A0105050505070554
:1002700008080808020202020A0A08080404040422
:10028000010101010101010103030303030303034E
:10029000040707070C0C0C0C0C0C0C0C02020202DD
:1002A00006060606060606060B0B0B0B0B0B0B0BC6
:1002B0000102102020080810204010204080020178
:1002C000020108040201010204081020408080405D
:1002D000201008040201800402018040201008045C
:1002E00002010804020101020408102040800102FA
:1002F000040810204080C50811241FBECFEFD1E2B2
:10030000DEBFCDBF00E00CBF12E0A0E0B2E0EAE942
:10031000F2E100E00BBF02C007900D92AE34B107CE
:10032000D9F722E0AEE4B2E001C01D92A038B207D6
:10033000E1F711E0CCE7D1E000E006C02197010928
:10034000802FFE010E940709CB37D10780E0080704
:10035000A9F70E9461060C944B090C94000090E0F0
:10036000FC01E055FD4F249186599D4FFC0184917D
:10037000882399F090E0880F991FFC01E05BFD4F06
:10038000A591B491FC01EA5CFD4F859194918FB7E2
:10039000F894EC91E22BEC938FBF0895282F30E076
:1003A000F901E051FE4F9491F901E055FD4F449160
:1003B00026593D4FF9012491222309F435C0992390
:1003C00011F191509231F8F4E92FF0E08827E451CF
:1003D000FE4F8F4F0C9407091D022102FE011502EA
:1003E0001902030224022A022E02340238023C02BD
:1003F0004202460203024A025002540280918000E7
:100400008F7780938000E22FF0E0EE0FFF1FEA5C11
:10041000FD4FA591B4918FB7F894EC91611148C04C
:1004200040954E234C938FBF0895809180008F7D1F
:10043000E8CF80918000877FE4CF84B58F7784BD3B
:10044000E2CF84B58F7DFBCF8091B0008F77809312
:10045000B000D9CF8091B0008F7DF9CF809190000E
:100460008F7780939000CFCF809190008F7DF9CFD0
:1004700080919000877FF5CF8091A0008F77809347
:10048000A000C1CF8091A0008F7DF9CF8091A00006
:10049000877FF5CF809120018F7780932001B3CFA4
:1004A000809120018F7DF9CF80912001877FF5CF4A
:1004B0004E2BB8CF3FB7F8948091640290916502BB
:1004C000A0916602B091670226B5A89B05C02F3F98
:1004D00019F00196A11DB11D3FBFBA2FA92F982F6A
:1004E0008827BC01CD01620F711D811D911D42E065
:1004F000660F771F881F991F4A95D1F708958F922D
:100500009F92AF92BF92CF92DF92EF92FF924B01F8
:100510005C010E945A026B017C010E945A026C1914
:100520007D098E099F09683E734081059105A8F3F6
:1005300021E0821A9108A108B10888EEC80E83E074
:10054000D81EE11CF11C81149104A104B10429F707
:10055000FF90EF90DF90CF90BF90AF909F908F90E3
:100560000895AF92BF92CF92DF92EF92FF920F93D6
:100570001F93CF93DF936C017B018B01040F151F39
:10058000EB015E01AE18BF08C017D10759F06991A1
:10059000D601ED91FC910190F081E02DC6011995F5
:1005A000892B79F7C501DF91CF911F910F91FF90B2
:1005B000EF90DF90CF90BF90AF900895089590E0B6
:1005C00080E008958F929F92AF92BF92CF92DF9278
:1005D000EF92FF92CF93DF93EC01C62E2091500251
:1005E000309151024091520250915302AAE0B0E082
:1005F0000E940F090C2C000CDD08EE08FF08C60E47
:10060000D71EE81EF91EC0925002D0925102E0920D
:100610005202F092530284E6882E912CA12CB12C28
:10062000C701B601A50194010E94E8086883CA01C8
:10063000B901A50194010E94E8086983C701B601C8
:1006400020E137E240E050E00E94E808CA01B90129
:10065000A50194010E94E8086A83DF91CF91FF9081
:10066000EF90DF90CF90BF90AF909F908F900895C4
:10067000FC018281883134F481818C331CF48081C7
:100680008C332CF081E080934E0280E0089581E06D
:100690000895009769F0FC0101900020E9F7319777
:1006A000AF01481B590BBC0188E692E00C94B102E3
:1006B00090E080E0089583E192E00C944903CF93A9
:1006C000DF93EC0160E08E810E94CE0161E08E81BB
:1006D0000E94CE0160E08E810E94CE018BE891E005
:1006E0000197F1F7DF91CF910895CF92DF92EF92CA
:1006F000FF920F931F93CF93DF936C017C0187E0F0
:10070000E80EF11CD0E0C0E0062F10E0B8010C2E7E
:1007100002C0759567950A94E2F76170F7018191BF
:100720007F010E94CE012196C430D10579F7C60120
:10073000DF91CF911F910F91FF90EF90DF90CF90BD
:100740000C945F03CF92DF92EF92FF920F931F936F
:10075000CF93DF93EC01F62E642F8C810E94CE01A3
:100760008D818F3F19F060E00E94CE010F2D10E0C7
:100770008F8584FF25C06E0187E0C80ED11CF12C47
:10078000E12CB8010E2C02C0759567950A94E2F72A
:100790006170F60181916F010E94CE01FFEFEF1AA7
:1007A000FF0A88E0E816F10461F7CE01DF91CF91EE
:1007B0001F910F91FF90EF90DF90CF900C945F030B
:1007C000B80184E0759567958A95E1F7CE010E949E
:1007D00075036F2DCE01DF91CF911F910F91FF9087
:1007E000EF90DF90CF900C94750340E0682F88E67F
:1007F00092E00C94A203CF93DF93823029F490917E
:10080000770298609093770280937B0210927C022B
:1008100080E480937D0280E180937E0280E5809376
:100820007F0280916C020E94AF0180916D028F3F28
:1008300011F00E94AF0180916E020E94AF01C8E6E4
:10084000D2E09E01285632408091770284FD0AC092
:1008500084E090E02196281739073CF48E810E94AD
:10086000AF01EFCF88E090E0F5CF8BE39DE00197FB
:10087000F1F760E080916C020E94CE0160E080910F
:100880006E020E94CE0180916D028F3F19F060E0F0
:100890000E94CE018091770284FD39C063E088E632
:1008A00092E00E947503CBE4D6E4CE010197F1F704
:1008B00063E088E692E00E9475032197F1F763E018
:1008C00088E692E00E94750383E592E00197F1F7D4
:1008D00062E088E692E00E94750380917702806270
:1008E0000E94F50384E0809378028CE00E94F50377
:1008F00081E00E94F5038BE39FE10197F1F782E02D
:100900008093790286E0DF91CF910C94F5038062A9
:100910000E94F5038BE496E40197F1F7809177024A
:1009200080620E94F50383E592E00197F1F78091E0
:10093000770280620E94F503D0CF90917B02691705
:1009400010F06FEF690FE62FF0E0E859FD4F948942
:10095000890F80680C94F50341E00E94A20381E0B6
:1009600090E00895CF93DF93EC01FC01649141E0A6
:1009700088E692E00E94A203FE013196649141E074
:1009800088E692E0DF91CF910C94A2031F920F9220
:100990000FB60F9211242F933F938F939F93AF9392
:1009A000BF938091600290916102A0916202B09128
:1009B000630230915F0223E0230F2D3758F5019633
:1009C000A11DB11D20935F0280936002909361028C
:1009D000A0936202B09363028091640290916502D9
:1009E000A0916602B09167020196A11DB11D80938E
:1009F000640290936502A0936602B0936702BF9170
:100A0000AF919F918F913F912F910F900FBE0F90BB
:100A10001F90189526E8230F0296A11DB11DD2CF75
:100A20001F920F920FB60F9211240BB60F922F93B5
:100A30003F934F935F936F937F938F939F93AF9366
:100A4000BF93EF93FF9380915402882359F08091D4
:100A50005B02811107C080915802815008F4A7C041
:100A60008093580280914F02882359F080915C0254
:100A7000811107C080915502815008F4BEC0809357
:100A8000550281E00E94F5038BE39FE10197F1F7A6
:100A900060E080E00E949D0480915A0288310CF44D
:100AA000D2C00E945B036AE388E692E00E94AC0435
:100AB000809159028C330CF4CFC00E945B036AE32F
:100AC00088E692E00E94AC04809158028C330CF4CA
:100AD000CCC00E945B0361E080E00E949D04809195
:100AE000570288310CF4CAC00E945B036AE388E6AF
:100AF00092E00E94AC04809156028C330CF4C7C083
:100B00000E945B036AE388E692E00E94AC04809155
:100B100055028C330CF4C4C00E945B0380914E02DA
:100B2000882311F180910002882309F4C2C061E09A
:100B300085E10E94CE011092000280910302909103
:100B4000040201979093040280930302892B61F4BD
:100B500010924E028AE090E0909304028093030288
:100B600060E085E10E94CE0160E08CE00E949D047F
:100B700080910502909106020E94490387E492E069
:100B80009093060280930502FF91EF91BF91AF9180
:100B90009F918F917F916F915F914F913F912F9195
:100BA0000F900BBE0F900FBE0F901F9018959BE3F8
:100BB0009093580280915902815018F08093590205
:100BC00051CF9093590280915A02815080935A02DA
:100BD0008F3F09F047CF81E080934E021092580278
:100BE0001092590210925A021092540283E492E039
:100BF000909306028093050235CF9BE390935502B4
:100C000080915602815018F0809356023ACF90930B
:100C10005602809157028150809357028F3F09F00E
:100C200030CF81E080934E0210925502109256020E
:100C30001092570210924F0288E492E090930602BD
:100C4000809305021ECF23E08202C0011124845C40
:100C50009E4F0E94B20427CF23E08202C0011124DC
:100C6000845C9E4F0E94B2042ACF23E08202C0011E
:100C70001124845C9E4F0E94B2042DCF23E0820297
:100C8000C0011124845C9E4F0E94B2042FCF23E048
:100C90008202C0011124845C9E4F0E94B20432CFB4
:100CA00023E08202C0011124845C9E4F0E94B204A2
:100CB00035CF60E085E10E94CE0181E080930002A3
:100CC0003CCF789484B5826084BD84B5816084BD56
:100CD00085B5826085BD85B5816085BD80916E00DA
:100CE000816080936E00109281008091810082600B
:100CF0008093810080918100816080938100809148
:100D000080008160809380008091B1008460809336
:100D1000B1008091B00081608093B000809191001B
:100D20008260809391008091910081608093910016
:100D3000809190008160809390008091A1008260FA
:100D40008093A1008091A10081608093A100809197
:100D5000A00081608093A000809121018260809337
:100D600021018091210181608093210180912001E6
:100D700081608093200180917A00846080937A0062
:100D800080917A00826080937A0080917A008160FD
:100D900080937A0080917A00806880937A00109224
:100DA000C100F8941092A00088E08093A100809187
:100DB000A10085608093A10088E09DE39093A90045
:100DC0008093A80082E0809372008FE081B980EF69
:100DD00082B982E00E94FB0385E10E94AF0160E0DE
:100DE00085E10E94CE017894C5E2D2E049E3242E49
:100DF00042E0342E52E0452E512C6AE2E62E62E0AB
:100E0000F62EDD24D3948EEFC82E90E2892E92E048
:100E1000992E26E1A22E22E0B22E30E0632E30E0A1
:100E2000732E1091020280B1113009F0BDC0803FD5
:100E3000B1F162E370E080E090E00E947F021092E6
:100E4000020210930102C2B8000092B180B198135F
:100E500017C08DEF82B9000092B180B1981310C015
:100E60008BEF82B9000092B180B1981309C087EF6F
:100E700082B9000092B180B1981302C010920102B1
:100E800080910102813049F480B18E3E09F040C06A
:100E900081E380935D02D0925E0280EF82B98091FF
:100EA0005E02882371F110925E0210915D0261E092
:100EB0008FE00E949D04612F88E692E00E94AC04BE
:100EC00061E085E10E94CE0164E670E080E090E0A0
:100ED0000E947F0260E085E10E94CE01113409F09A
:100EE0006FC080915C0281113AC1D0925B02109276
:100EF00058021092590210925A02B0920602A09221
:100F000005026114710409F48CCF0E94000079CFAE
:100F100080B18E3D11F482E3BCCF80B18E3B11F4E1
:100F200083E3B7CF80B18D3E11F484E3B2CF80B1BB
:100F30008D3D11F485E3ADCF80B18D3B11F486E397
:100F4000A8CF80B18B3E11F487E3A3CF80B18B3D56
:100F500011F488E39ECF80B18B3B11F489E399CFE4
:100F600080B1873D11F480E394CF80B18E3711F4C6
:100F700081E48FCF80B18D3711F482E48ACF80B1C4
:100F80008B3711F483E485CF80B1873711F484E483
:100F900080CF80B1873B11F485E47BCF80B1873E61
:100FA00009F079CF86E475CF803F09F078CF68ECFF
:100FB00070E080E090E00E947F02D09202026FCF4A
:100FC000123499F480915B028111C9C0D0925C0205
:100FD0001092550210925602109257028BE192E045
:100FE00090930602809305028CCF1334A9F580916B
:100FF0005B02882321F188E592E00E943803882370
:1010000089F0D092540290920602809205021092CA
:101010005B021092500210925102109252021092F2
:1010200053026FCF1092540210925802109259023C
:1010300010925A02D0930602C0930502E8CF109294
:101040005402109258021092590210925A02F092D1
:101050000602E092050255CF143469F580915C02D6
:101060008823F1F085E592E00E943803882359F047
:10107000D0924F028FE292E0909306028093050295
:1010800010925C02C6CF10924F021092550210923D
:10109000560210925702D0930602C0930502F0CF79
:1010A00010924F021092550210925602109257025F
:1010B00084E392E095CF163471F580915B0288232A
:1010C000A9F010925B0210925402109258021092F2
:1010D000590210925A02F0920602E0920502D09252
:1010E0004E02509204024092030293CF80915C0220
:1010F0008823A9F310925C0210924F0210925502BD
:10110000109256021092570284E392E090930602E6
:1011100080930502E4CF153411F580915C02882399
:1011200081F085E592E00E943803882329F030920F
:10113000060220920502E5CED0930602C093050276
:10114000E0CE80915B02882309F4DBCE88E592E053
:101150000E943803882381F38EE392E041CF60ED53
:10116000610F6A3008F0CDCE80915B02882329F0B0
:1011700088E592E00E94E202C4CE80915C0288235E
:1011800009F4BFCE85E592E0F5CFE8E6F2E0138200
:1011900012828BE092E0918380838BE084838CE0E9
:1011A00085838DE0868385E2878384E2808783E27E
:1011B000818782E2828781E2838780E284878FE170
:1011C00085878EE1868780E1878781E00C94FB0329
:1011D000052E97FB1EF400940E94FF0857FD07D0D0
:1011E0000E941A0907FC03D04EF40C94FF08509596
:1011F0004095309521953F4F4F4F5F4F0895909503
:101200008095709561957F4F8F4F9F4F0895EE0F9A
:10121000FF1F881F8BBF0790F691E02D19940E9445
:101220003C09A59F900DB49F900DA49F800D911D2A
:1012300011240895A1E21A2EAA1BBB1BFD010DC0AB
:10124000AA1FBB1FEE1FFF1FA217B307E407F50776
:1012500020F0A21BB30BE40BF50B661F771F881F52
:10126000991F1A9469F760957095809590959B01E8
:10127000AC01BD01CF010895A29FB001B39FC00191
:10128000A39F700D811D1124911DB29F700D811DB2
:0A1290001124911D0895F894FFCF7A
:10129A000101010A00470200000000AC04B102DFAC
:1012AA0002DE02454500534554310053455432008D
:1012BA0054314F4E004F464C570054314F4600545C
:1012CA00324F4E0054324F460054324F4B00543185
:0E12DA004F4B005431212100543221210000DD
:00000001FF
