:100000000C9427010C9458010C9458010C9458013D
:100010000C9458010C9458010C9458010C945801FC
:100020000C9458010C9458010C9458010C945801EC
:100030000C9458010C9458010C9458010C941B0317
:100040000C9458010C9456030C9458010C945801CC
:100050000C9458010C9458010C9458010C94D10242
:100060000C9458010C9458010C9458010C945801AC
:100070000C9458010C9458010C9458010C9458019C
:100080000C9458010C9458010C9458010C9458018C
:100090000C9458010C9458010C9458010C9458017C
:1000A0000C9458010C9458010C9458010C9458016C
:1000B0000C9458010C9458010C9458010C9458015C
:1000C0000C9458010C9458010C9458010C9458014C
:1000D0000C9458010C9458010C9458010C9458013C
:1000E0000C9458010C948D010C94B8010C9493015C
:1000F0000C9482010C94B3010C94BD010C94A101E9
:100100000C94B9010C94AB010C9478010C94AF01E0
:100110000C9486010C9497010C947E010C949D0123
:100120000C940C050C948A010C94A501000021008C
:10013000240027002A002D003000330001010000B8
:10014000040107010A0100002200250028002B00FD
:100150002E003100340002010000050108010B01EE
:10016000000020002300260029002C002F00320070
:100170000001000003010601090105050505070549
:1001800008080808020202020A0A08080404040413
:10019000010101010101010103030303030303033F
:1001A000040707070C0C0C0C0C0C0C0C02020202CE
:1001B00006060606060606060B0B0B0B0B0B0B0BB7
:1001C0000102102020080810204010204080020169
:1001D000020108040201010204081020408080404E
:1001E000201008040201800402018040201008044D
:1001F00002010804020101020408102040800102EB
:1002000004081020408000000A0B02090C0D0E08A3
:1002100007030401000000000000000000000000CF
:1002200000000000000000000000000000000000CE
:10023000000012111000000000000000000000008B
:100240000000000000000000000000000C05112468
:100250001FBECFEFD1E2DEBFCDBF00E00CBF12E08A
:10026000A0E0B2E0E0E4FAE000E00BBF02C00790DB
:100270000D92AE30B107D9F722E0AEE0B2E001C096
:100280001D92A234B207E1F711E0C7E2D1E000E02D
:1002900006C021970109802FFE010E941605C63273
:1002A000D10780E00807A9F70E94A2030C941E055D
:1002B0000C9400008150823108F05AC0E82FF0E021
:1002C0008827EA59FE4F8F4F0C94160586018A0144
:1002D00078017E018201B8018D01930197019D0192
:1002E000A101A501AB01AF01B801B301B901BD0185
:1002F000809180008F7780938000089580918000A6
:100300008F7DF9CF80918000877FF5CF84B58F777F
:1003100084BD089584B58F7DFBCF8091B0008F7729
:100320008093B00008958091B0008F7DF9CF8091C7
:1003300090008F77809390000895809190008F7D3A
:10034000F9CF80919000877FF5CF8091A0008F77C3
:100350008093A00008958091A0008F7DF9CF8091B7
:10036000A000877FF5CF809120018F7780932001B7
:100370000895809120018F7DF9CF80912001877FA2
:10038000F5CFCF93DF93282F30E0F901EA5FFD4FDF
:100390008491F901E054FE4FD491F901E658FE4FE3
:1003A000C491CC23A1F081110E945A01EC2FF0E0FE
:1003B000EE0FFF1FE05AFE4FA591B491EC91ED2393
:1003C00081E090E009F480E0DF91CF91089580E032
:1003D00090E0FACF1F93CF93DF93282F30E0F901FD
:1003E000EA5FFD4F8491F901E054FE4FD491F90189
:1003F000E658FE4FC491CC23A9F0162F81110E941C
:100400005A01EC2FF0E0EE0FFF1FEA5BFE4FA591C3
:10041000B4918FB7F894EC91111108C0D095DE23F8
:10042000DC938FBFDF91CF911F910895DE2BF8CF22
:10043000CF93DF9390E0FC01E054FE4F2491865867
:100440009E4FFC0184918823D1F090E0880F991F82
:10045000FC01E45DFE4FA591B491FC01EA5BFE4F07
:10046000C591D49161110EC09FB7F8948C91E22F81
:10047000E0958E238C932881E223E8839FBFDF9150
:10048000CF9108958FB7F894EC91E22BEC938FBF46
:10049000F6CF3FB7F89480913E0290913F02A09131
:1004A0004002B091410226B5A89B05C02F3F19F02C
:1004B0000196A11DB11D3FBFBA2FA92F982F8827E4
:1004C000BC01CD01620F711D811D911D42E0660FBF
:1004D000771F881F991F4A95D1F708958F929F9291
:1004E000AF92BF92CF92DF92EF92FF926B017C01AD
:1004F0000E9449024B015C01C114D104E104F104E2
:10050000B9F00E944902681979098A099B09683E75
:1005100073408105910580F321E0C21AD108E108FA
:10052000F10888EE880E83E0981EA11CB11CE4CF70
:10053000FF90EF90DF90CF90BF90AF909F908F9003
:100540000895E0E08A3018F08A50EF5FFBCF262F45
:1005500030E0D901A15FBD4FF0E0ED5FFD4F90812C
:100560009C93E82FF0E0ED5FFD4F80816D7FF901F6
:10057000E05FFD4F662311F0808308958F77FCCFF5
:10058000CF93DF93EC0160E08A810E94A10262E0D8
:1005900089810E94A10264E08881DF91CF910C944F
:1005A000A1021F920F920FB60F9211242F933F9327
:1005B0008F939F93AF93BF9380913A0290913B02A8
:1005C000A0913C02B0913D023091390223E0230F0B
:1005D0002D3758F50196A11DB11D20933902809346
:1005E0003A0290933B02A0933C02B0933D0280916B
:1005F0003E0290913F02A0914002B09141020196CB
:10060000A11DB11D80933E0290933F02A093400232
:10061000B0934102BF91AF919F918F913F912F91E4
:100620000F900FBE0F901F90189526E8230F02968B
:10063000A11DB11DD2CF1F920F920FB60F921124A0
:100640000BB60F928F93EF93FF9380910002882354
:1006500049F180910102880F8C7FF9F080930102AB
:1006600080910E028F5F8630D1F080930E028091D0
:1006700001028BB9E0910E02F0E0E15FFD4F808155
:1006800082B910920002FF91EF918F910F900BBEF3
:100690000F900FBE0F901F90189584E0DFCF10923F
:1006A0000E02E5CF81E080930002EDCF1F920F9202
:1006B0000FB60F9211240BB60F922F933F934F93C7
:1006C0005F936F937F938F939F93AF93BF93EF93BA
:1006D000FF9380910202882359F0809135028F5F49
:1006E0008C33C9F08093350285E392E00E94C0020A
:1006F000FF91EF91BF91AF919F918F917F916F91FA
:100700005F914F913F912F910F900BBE0F900FBEB5
:100710000F901F90189510923502809136028F5FCE
:100720008C3319F080933602DFCF1092360280911D
:1007300037028F5F883119F080933702D5CF10923E
:100740003702D2CF789484B5826084BD84B581604D
:1007500084BD85B5826085BD85B5816085BD80918C
:100760006E00816080936E00109281008091810004
:1007700082608093810080918100816080938100FC
:10078000809180008160809380008091B1008460BE
:100790008093B1008091B00081608093B00080911F
:1007A000910082608093910080919100816080939C
:1007B0009100809190008160809390008091A100D1
:1007C00082608093A1008091A10081608093A1004C
:1007D0008091A00081608093A000809121018260BF
:1007E000809321018091210181608093210180917A
:1007F000200181608093200180917A008460809341
:100800007A0080917A00826080937A0080917A00E9
:10081000816080937A0080917A00806880937A006A
:100820001092C10060E084E30E94180261E084E35A
:100830000E94EA0160E083E30E94180261E083E322
:100840000E94EA0160E082E30E94180261E082E314
:100850000E94EA0160E08AE00E94180261E08AE0FA
:100860000E94EA01F8948FEF8AB9909101029BB936
:1008700081B982B91092B2001092B00082E08093E8
:10088000B1008091700081608093700010928000B0
:100890008CE08093810088E09DE3909389008093B1
:1008A000880080916F00826080936F00789461E08F
:1008B00082E20E94180260E082E20E94EA0123E0E4
:1008C000C22E00E010E0DD24D39484E30E94C10135
:1008D000892BF1F580910202882321F11092020206
:1008E00068EC70E080E090E00E946E02809135023A
:1008F0008B3391F480910202882371F061E082E2EF
:100900000E94EA0168EC70E080E090E00E946E02D4
:1009100060E082E20E94EA0101151105B1F20E9435
:100920000000D3CF80913802882329F0D0920202B0
:1009300010923802D5CF10923502109236021092E2
:100940003702D092380285E392E00E94C002C8CFFD
:1009500083E30E94C101892B11F580910202882353
:1009600009F4BECF809134028A3020F01092340214
:10097000D092330220913502909136028091370255
:10098000E091340231E03E0F30933402EC9DF001EF
:100990001124EB5EFD4F208391838283A1CF82E3FC
:1009A0000E94C101892B69F4E5E1F2E01082118215
:1009B0001282339682E0E333F807C1F710923402D3
:1009C0008FCF8AE00E94C101EC01892B09F08ECF04
:1009D00080910202811184CF8091330281111AC06B
:1009E0008091340295E1A92E92E0B92EE82EF12CE7
:1009F000CE15DF050CF0A7CFC5010E94C0026CE246
:100A000071E080E090E00E946E02219683E0A80EE3
:100A1000B11CEECF8AE0E6CFEFE0F2E080EC80831D
:100A2000818382838383848385830895EE0FFF1FF0
:100A3000881F8BBF0790F691E02D1994F894FFCF93
:0E0A4000010401C0F9A4B0999282F8809000E0
:00000001FF
