:100000000C9435000C945D000C945D000C945D0024
:100010000C945D000C945D000C945D000C945D00EC
:100020000C945D000C945D000C945D000C945D00DC
:100030000C945D000C945D000C945D000C945D00CC
:100040000C94C3010C945D000C9433020C940D02CB
:100050000C9465020C945D000C945D000C945D00A2
:100060000C945D000C945D00810311241FBECFEF42
:10007000D8E0DEBFCDBF11E0A0E0B1E0ECE6F7E0F4
:1000800002C005900D92AE32B107D9F721E0AEE281
:10009000B1E001C01D92A43DB207E1F710E0C5E355
:1000A000D0E004C02197FE010E94AE03C433D10703
:1000B000C9F70E9470020C94B4030C9400003FB77F
:1000C000F8948091D0019091D101A091D201B0918A
:1000D000D30126B5A89B05C02F3F19F00196A11D9D
:1000E000B11D3FBFBA2FA92F982F8827BC01CD0182
:1000F000620F711D811D911D42E0660F771F881FE1
:10010000991F4A95D1F708958F929F92AF92BF920F
:10011000CF92DF92EF92FF924B015C010E945F0051
:100120006B017C010E945F006C197D098E099F099B
:10013000683E734081059105A8F321E0821A910879
:10014000A108B10888EEC80E83E0D81EE11CF11C9E
:1001500081149104A104B10429F7FF90EF90DF907E
:10016000CF90BF90AF909F908F900895AF92BF9225
:10017000CF92DF92EF92FF920F931F93CF93DF9373
:100180006C017B018B01040F151FEB015E01AE18A2
:10019000BF08C017D10759F06991D601ED91FC91C4
:1001A0000190F081E02DC6010995892B79F7C501F1
:1001B000DF91CF911F910F91FF90EF90DF90CF9043
:1001C000BF90AF900895FC01538D448D252F30E0F2
:1001D000842F90E0821B930B541710F0CF96089554
:1001E00001970895FC01918D828D981761F0A28D81
:1001F000AE0FBF2FB11D5D968C91928D9F5F9F7347
:10020000928F90E008958FEF9FEF0895FC01918DFC
:10021000828D981731F0828DE80FF11D858D90E069
:1002200008958FEF9FEF0895FC01918D228D892F06
:1002300090E0805C9F4F821B91098F7399270895EE
:100240008EE291E00E94140121E0892B09F420E064
:10025000822F089580E090E0892B29F00E942001F0
:1002600081110C9400000895FC01A48DA80FB92FF2
:10027000B11DA35ABF4F2C91848D90E001968F73CE
:100280009927848FA689B7892C93A089B1898C91ED
:10029000837080648C93938D848D981306C002883C
:1002A000F389E02D80818F7D80830895EF92FF9206
:1002B0000F931F93CF93DF93EC0181E0888F9B8D89
:1002C0008C8D98131AC0E889F989808185FF15C043
:1002D0009FB7F894EE89FF896083E889F989808166
:1002E0008370806480839FBF81E090E0DF91CF9135
:1002F0001F910F91FF90EF900895F62E0B8D10E057
:100300000F5F1F4F0F731127E02E8C8D8E110CC0C5
:100310000FB607FCFACFE889F989808185FFF5CF10
:10032000CE010E943401F1CFEB8DEC0FFD2FF11DBA
:10033000E35AFF4FF0829FB7F8940B8FEA89FB894D
:1003400080818062CFCFCF93DF93EC01888D8823AB
:10035000B9F0AA89BB89E889F9898C9185FD03C028
:10036000808186FD0DC00FB607FCF7CF8C9185FF0D
:10037000F2CF808185FFEDCFCE010E943401E9CF1D
:10038000DF91CF9108951F920F920FB60F92112413
:100390002F933F938F939F93AF93BF938091CC0103
:1003A0009091CD01A091CE01B091CF013091CB01C0
:1003B00023E0230F2D3758F50196A11DB11D209381
:1003C000CB018093CC019093CD01A093CE01B0934B
:1003D000CF018091D0019091D101A091D201B09133
:1003E000D3010196A11DB11D8093D0019093D1013D
:1003F000A093D201B093D301BF91AF919F918F9100
:100400003F912F910F900FBE0F901F90189526E8E7
:10041000230F0296A11DB11DD2CF1F920F920FB6CE
:100420000F9211242F933F934F935F936F937F937A
:100430008F939F93AF93BF93EF93FF938EE291E0DF
:100440000E943401FF91EF91BF91AF919F918F91E5
:100450007F916F915F914F913F912F910F900FBEC0
:100460000F901F9018951F920F920FB60F921124A4
:100470002F938F939F93EF93FF93E0913E01F09121
:100480003F018081E0914401F091450182FD1BC054
:100490009081809147018F5F8F732091480182176F
:1004A00041F0E0914701F0E0E25DFE4F958F8093CF
:1004B0004701FF91EF919F918F912F910F900FBE68
:1004C0000F901F9018958081F4CF1F920F920FB656
:1004D0000F9211245A980F900FBE0F901F901895ED
:1004E000789484B5826084BD84B5816084BD85B50F
:1004F000826085BD85B5816085BD80916E0081601B
:1005000080936E00109281008091810082608093C0
:1005100081008091810081608093810080918000C2
:100520008160809380008091B10084608093B100ED
:100530008091B00081608093B00080917A008460E7
:1005400080937A0080917A00826080937A00809113
:100550007A00816080937A0080917A00806880932D
:100560007A001092C10068EE73E080E090E00E9493
:10057000840087E08AB988EF8BB9E0913E01F09161
:100580003F0182E08083E0913A01F0913B011082CB
:10059000E0913C01F0913D018AE880831092460190
:1005A000E0914201F091430186E08083E0914001B7
:1005B000F0914101808180618083E0914001F09160
:1005C0004101808188608083E0914001F091410188
:1005D000808180688083E0914001F09141018081B9
:1005E0008F7D80838091C10084648093C10080915D
:1005F000C00081608093C00061E070E080E090E026
:100600000E948400ECE1EE2EE1E0FE2E00E011E01D
:1006100000951095FBE09F2EA0E0CA2EA0E0DA2EF8
:1006200070E4872E8EE291E00E941401892B09F478
:1006300052C08EE291E00E94F2008E3D09F04BC064
:100640008091C0008E7F8093C0005A9A61E070E074
:1006500080E090E00E948400E0E0F1E090E080E043
:100660002191922728E030E0AC01880F991F57FFB5
:1006700004C049E8842745E0942721503109A1F7B7
:1006800021E0EA31F20761F790931A0180931B0190
:10069000D0E0C0E080E0A82E81E0B82EF5016191A5
:1006A0005F01C130D10519F5C8018E0F9F1F499711
:1006B00009F468258EE291E00E945601EA14FB04D9
:1006C00069F72196C530D10529F768EC70E080E024
:1006D00090E00E948400C114D10409F4A3CF0E94C9
:1006E0002001882309F49ECF0E94000099CFC430D6
:1006F000D10501F7C8018E0F9F1F0897D9F669250C
:10070000D9CFEEE2F1E01382128288EE93E0A0E00E
:10071000B0E084839583A683B78380E291E09183E0
:10072000808385EC90E09587848784EC90E09787C0
:10073000868780EC90E0918B808B81EC90E0938BAE
:10074000828B82EC90E0958B848B86EC90E0978B8B
:10075000868B118E128E138E148E0895EE0FFF1F4E
:0C0760000590F491E02D0994F894FFCF6F
:10076C000102030405060709081001020A0B0C0D0F
:10077C0010080A0203020E090F0A101000000000F4
:0E078C005601B600E300A3011401F2000601BD
:00000001FF
