:100000000C9424010C9445010C9445010C94450179
:100010000C9445010C9445010C9445010C94450148
:100020000C9445010C9445010C9445010C94450138
:100030000C9445010C9445010C9445010C94450128
:100040000C9445010C9445010C9445010C94450118
:100050000C9445010C9445010C9445010C946C01E1
:100060000C9445010C9445010C9445010C944501F8
:100070000C9445010C9445010C9445010C944501E8
:100080000C9445010C9445010C9445010C944501D8
:100090000C9445010C9445010C9445010C944501C8
:1000A0000C9445010C9445010C9445010C944501B8
:1000B0000C9445010C9445010C9445010C944501A8
:1000C0000C9445010C9445010C9445010C94450198
:1000D0000C9445010C9445010C9445010C94450188
:1000E0000C9445010C9406030C94CF020C94B402BA
:1000F0000C94E6020C94F8020C94EE020C94CB02E1
:100100000C94E0020C94FC020C94DC020C94D602D9
:100110000C94EA020C9402030C94C7020C94AF02F4
:100120000C94F4020C94D302000022002500280055
:100130002B002E00310034000201000005010801EF
:100140000B0100002100240027002A002D003000B0
:10015000330001010000040107010A010000200032
:100160002300260029002C002F003200000100008F
:10017000030106010901050505050705080808082A
:10018000020202020A0A080804040404010101012F
:10019000010101010303030303030303040707072A
:1001A0000C0C0C0C0C0C0C0C0202020206060606CF
:1001B000060606060B0B0B0B0B0B0B0B010210209C
:1001C000200808102040102040800201020108048D
:1001D0000201010204081020408080402010080421
:1001E000020180040201804020100804020108047A
:1001F00002010102040810204080010204081020BE
:10020000408000000A0B02090C0D0E0807030401D0
:1002100000000000000000000000000000000000DE
:1002200000000000000000000000000000001211AB
:1002300010000000000000000000000000000000AE
:10024000000000000000000011241FBECFEFD1E22B
:10025000DEBFCDBF00E00CBF12E0A0E0B2E0E8E2FC
:10026000F6E000E00BBF02C007900D92A830B10786
:10027000D9F722E0A8E0B2E001C01D92A131B20797
:10028000E1F70E94B6010C9412030C9400003FB7F2
:10029000F89480910D0290910E02A0910F02B091FE
:1002A000100226B5A89B05C02F3F19F00196A11D8D
:1002B000B11D3FBFBA2FA92F982F8827BC01CD01B0
:1002C000620F711D811D911D42E0660F771F881F0F
:1002D000991F4A95D1F708951F920F920FB60F926A
:1002E00011242F933F938F939F93AF93BF9380914C
:1002F000090290910A02A0910B02B0910C02309178
:10030000080223E0230F2D3758F50196A11DB11DDA
:10031000209308028093090290930A02A0930B0293
:10032000B0930C0280910D0290910E02A0910F02E9
:10033000B09110020196A11DB11D80930D02909302
:100340000E02A0930F02B0931002BF91AF919F9144
:100350008F913F912F910F900FBE0F901F90189586
:1003600026E8230F0296A11DB11DD2CF789484B543
:10037000826084BD84B5816084BD85B5826085BDA1
:1003800085B5816085BD80916E00816080936E002F
:100390001092810080918100826080938100809121
:1003A00081008160809381008091800081608093D2
:1003B00080008091B10084608093B1008091B00092
:1003C00081608093B0008091910082608093910061
:1003D0008091910081608093910080919000816074
:1003E000809390008091A10082608093A100809111
:1003F000A10081608093A1008091A0008160809322
:10040000A0008091210182608093210180912101CF
:10041000816080932101809120018160809320017F
:1004200080917A00846080937A0080917A00826063
:1004300080937A0080917A00816080937A00809125
:100440007A00806880937A001092C1008FEF8093C9
:100450000A0110920B014AEF242E41E0342EF101E3
:10046000249154EB852E51E0952EF401849188233C
:10047000C1F090E0880F991FFC01EE5BFE4FA59143
:10048000B491FC01E85DFE4FC591D4919FB7F894FB
:100490003C91822F809583238C938881282B2883FD
:1004A0009FBF08E012E020E0A22E20E0B22EE0E4A0
:1004B000F2E08491F1012491F4019491911130C002
:1004C000C0E0D2E08881229680930B010E94470110
:1004D0002B013C0184EFC82ED12CE12CF12C0E9481
:1004E00047016419750986099709683E73408105BB
:1004F0009105A8F3F1E0CF1AD108E108F10828EE40
:10050000420E23E0521E611C711CC114D104E1048F
:10051000F10429F70C171D07A9F610920B0130C042
:10052000882311F181508231F8F4E82FF0E0882718
:10053000E356FD4F8F4F0C940A03CF02D302AF0254
:10054000C702CB02B402D602DC02E002E602EA02F3
:10055000EE02F402F802B402FC02020306038091E8
:1005600080008F7780938000E92FF0E0EE0FFF1F6F
:10057000E45AFE4FA591B4918C91282309F4A0CFA1
:10058000A114B10409F493CF0E94000090CF809190
:1005900080008F7DE7CF80918000877FE3CF84B597
:1005A0008F7784BDE1CF84B58F7DFBCF8091B00084
:1005B0008F778093B000D8CF8091B0008F7DF9CF36
:1005C000809190008F7780939000CECF80919000A3
:1005D0008F7DF9CF80919000877FF5CF8091A0002B
:1005E0008F778093A000C0CF8091A0008F7DF9CF3E
:1005F0008091A000877FF5CF809120018F77809335
:100600002001B2CF809120018F7DF9CF8091200110
:10061000877FF5CFEE0FFF1F881F8BBF0790F691E6
:08062000E02D1994F894FFCFBE
:080628008100420024001800CB
:00000001FF
