:020000020000FC
:0200000047C0F7
:1000800052C0FF93EF9378E180E0EF91FF910895E4
:100090006FEF6DBF61E26EBF00E01FEF202F20BF4A
:1000A00017B908B9212F20930701202F20930801A9
:1000B000212F20930A01202F20930B0101B914E175
:1000C00012B9F8942BE12093990026E72093980029
:1000D00020E0209390002DE02093910022E02093D7
:1000E0007100789404990CC070E188E0689401F87C
:1000F00021E020930B0111D020E020930B01F2CFDF
:1001000002990AC090E8689402F821E020930B015C
:1001100004D020E020930B01E5CF40E058EC4150A3
:100120005040E9F7089501FC02C002FC0CC070FDCC
:1001300070E071FD71E872FD72E473FD74E283FD9D
:100140000E94410078B9692F262F209308019695C7
:02015000189500
:00000001FF
